{
  "_format": "hh-sol-artifact-1",
  "contractName": "TheSuperbOwlClubNFT",
  "sourceName": "contracts/TheSuperbOwlClubNFT.sol",
  "abi": [
    {
      "inputs": [],
      "stateMutability": "payable",
      "type": "constructor"
    },
    {
      "anonymous": false,
      "inputs": [
        {
          "indexed": true,
          "internalType": "address",
          "name": "owner",
          "type": "address"
        },
        {
          "indexed": true,
          "internalType": "address",
          "name": "approved",
          "type": "address"
        },
        {
          "indexed": true,
          "internalType": "uint256",
          "name": "tokenId",
          "type": "uint256"
        }
      ],
      "name": "Approval",
      "type": "event"
    },
    {
      "anonymous": false,
      "inputs": [
        {
          "indexed": true,
          "internalType": "address",
          "name": "owner",
          "type": "address"
        },
        {
          "indexed": true,
          "internalType": "address",
          "name": "operator",
          "type": "address"
        },
        {
          "indexed": false,
          "internalType": "bool",
          "name": "approved",
          "type": "bool"
        }
      ],
      "name": "ApprovalForAll",
      "type": "event"
    },
    {
      "anonymous": false,
      "inputs": [
        {
          "indexed": true,
          "internalType": "address",
          "name": "previousOwner",
          "type": "address"
        },
        {
          "indexed": true,
          "internalType": "address",
          "name": "newOwner",
          "type": "address"
        }
      ],
      "name": "OwnershipTransferred",
      "type": "event"
    },
    {
      "anonymous": false,
      "inputs": [
        {
          "indexed": false,
          "internalType": "address",
          "name": "account",
          "type": "address"
        }
      ],
      "name": "Paused",
      "type": "event"
    },
    {
      "anonymous": false,
      "inputs": [
        {
          "indexed": true,
          "internalType": "address",
          "name": "from",
          "type": "address"
        },
        {
          "indexed": true,
          "internalType": "address",
          "name": "to",
          "type": "address"
        },
        {
          "indexed": true,
          "internalType": "uint256",
          "name": "tokenId",
          "type": "uint256"
        }
      ],
      "name": "Transfer",
      "type": "event"
    },
    {
      "anonymous": false,
      "inputs": [
        {
          "indexed": false,
          "internalType": "address",
          "name": "account",
          "type": "address"
        }
      ],
      "name": "Unpaused",
      "type": "event"
    },
    {
      "inputs": [],
      "name": "allProCap",
      "outputs": [
        {
          "internalType": "uint256",
          "name": "",
          "type": "uint256"
        }
      ],
      "stateMutability": "view",
      "type": "function"
    },
    {
      "inputs": [],
      "name": "allProCounter",
      "outputs": [
        {
          "internalType": "uint256",
          "name": "",
          "type": "uint256"
        }
      ],
      "stateMutability": "view",
      "type": "function"
    },
    {
      "inputs": [],
      "name": "allProMintPrice",
      "outputs": [
        {
          "internalType": "uint256",
          "name": "",
          "type": "uint256"
        }
      ],
      "stateMutability": "view",
      "type": "function"
    },
    {
      "inputs": [
        {
          "internalType": "uint256",
          "name": "",
          "type": "uint256"
        }
      ],
      "name": "allProTokenID",
      "outputs": [
        {
          "internalType": "uint256",
          "name": "",
          "type": "uint256"
        }
      ],
      "stateMutability": "view",
      "type": "function"
    },
    {
      "inputs": [
        {
          "internalType": "uint256",
          "name": "quantity_",
          "type": "uint256"
        }
      ],
      "name": "apMint",
      "outputs": [],
      "stateMutability": "payable",
      "type": "function"
    },
    {
      "inputs": [
        {
          "internalType": "address",
          "name": "to",
          "type": "address"
        },
        {
          "internalType": "uint256",
          "name": "tokenId",
          "type": "uint256"
        }
      ],
      "name": "approve",
      "outputs": [],
      "stateMutability": "nonpayable",
      "type": "function"
    },
    {
      "inputs": [
        {
          "internalType": "address",
          "name": "owner",
          "type": "address"
        }
      ],
      "name": "balanceOf",
      "outputs": [
        {
          "internalType": "uint256",
          "name": "",
          "type": "uint256"
        }
      ],
      "stateMutability": "view",
      "type": "function"
    },
    {
      "inputs": [
        {
          "internalType": "uint256",
          "name": "tokenId",
          "type": "uint256"
        }
      ],
      "name": "getApproved",
      "outputs": [
        {
          "internalType": "address",
          "name": "",
          "type": "address"
        }
      ],
      "stateMutability": "view",
      "type": "function"
    },
    {
      "inputs": [],
      "name": "halt",
      "outputs": [],
      "stateMutability": "nonpayable",
      "type": "function"
    },
    {
      "inputs": [
        {
          "internalType": "address",
          "name": "owner",
          "type": "address"
        },
        {
          "internalType": "address",
          "name": "operator",
          "type": "address"
        }
      ],
      "name": "isApprovedForAll",
      "outputs": [
        {
          "internalType": "bool",
          "name": "",
          "type": "bool"
        }
      ],
      "stateMutability": "view",
      "type": "function"
    },
    {
      "inputs": [],
      "name": "mintPrice",
      "outputs": [
        {
          "internalType": "uint256",
          "name": "",
          "type": "uint256"
        }
      ],
      "stateMutability": "view",
      "type": "function"
    },
    {
      "inputs": [],
      "name": "name",
      "outputs": [
        {
          "internalType": "string",
          "name": "",
          "type": "string"
        }
      ],
      "stateMutability": "view",
      "type": "function"
    },
    {
      "inputs": [],
      "name": "owner",
      "outputs": [
        {
          "internalType": "address",
          "name": "",
          "type": "address"
        }
      ],
      "stateMutability": "view",
      "type": "function"
    },
    {
      "inputs": [
        {
          "internalType": "uint256",
          "name": "tokenId",
          "type": "uint256"
        }
      ],
      "name": "ownerOf",
      "outputs": [
        {
          "internalType": "address",
          "name": "",
          "type": "address"
        }
      ],
      "stateMutability": "view",
      "type": "function"
    },
    {
      "inputs": [],
      "name": "paused",
      "outputs": [
        {
          "internalType": "bool",
          "name": "",
          "type": "bool"
        }
      ],
      "stateMutability": "view",
      "type": "function"
    },
    {
      "inputs": [
        {
          "internalType": "address payable",
          "name": "receiverAddress_",
          "type": "address"
        },
        {
          "internalType": "uint256",
          "name": "amount_",
          "type": "uint256"
        }
      ],
      "name": "payTo",
      "outputs": [
        {
          "internalType": "bool",
          "name": "",
          "type": "bool"
        }
      ],
      "stateMutability": "nonpayable",
      "type": "function"
    },
    {
      "inputs": [
        {
          "internalType": "uint256",
          "name": "quantity_",
          "type": "uint256"
        }
      ],
      "name": "rMint",
      "outputs": [],
      "stateMutability": "payable",
      "type": "function"
    },
    {
      "inputs": [],
      "name": "renounceOwnership",
      "outputs": [],
      "stateMutability": "nonpayable",
      "type": "function"
    },
    {
      "inputs": [
        {
          "internalType": "string",
          "name": "tokenURI_",
          "type": "string"
        },
        {
          "internalType": "uint256",
          "name": "startingNFT",
          "type": "uint256"
        }
      ],
      "name": "revealAllProCollections",
      "outputs": [],
      "stateMutability": "nonpayable",
      "type": "function"
    },
    {
      "inputs": [
        {
          "internalType": "string",
          "name": "tokenURI_",
          "type": "string"
        },
        {
          "internalType": "uint256",
          "name": "startingNFT",
          "type": "uint256"
        }
      ],
      "name": "revealRookieCollections",
      "outputs": [],
      "stateMutability": "nonpayable",
      "type": "function"
    },
    {
      "inputs": [
        {
          "internalType": "string",
          "name": "tokenURI_",
          "type": "string"
        },
        {
          "internalType": "uint256",
          "name": "startingNFT",
          "type": "uint256"
        }
      ],
      "name": "revealVeteranCollections",
      "outputs": [],
      "stateMutability": "nonpayable",
      "type": "function"
    },
    {
      "inputs": [
        {
          "internalType": "uint256",
          "name": "",
          "type": "uint256"
        }
      ],
      "name": "revealedTokens",
      "outputs": [
        {
          "internalType": "bool",
          "name": "",
          "type": "bool"
        }
      ],
      "stateMutability": "view",
      "type": "function"
    },
    {
      "inputs": [],
      "name": "rookieCap",
      "outputs": [
        {
          "internalType": "uint256",
          "name": "",
          "type": "uint256"
        }
      ],
      "stateMutability": "view",
      "type": "function"
    },
    {
      "inputs": [],
      "name": "rookieCounter",
      "outputs": [
        {
          "internalType": "uint256",
          "name": "",
          "type": "uint256"
        }
      ],
      "stateMutability": "view",
      "type": "function"
    },
    {
      "inputs": [],
      "name": "rookieMintPrice",
      "outputs": [
        {
          "internalType": "uint256",
          "name": "",
          "type": "uint256"
        }
      ],
      "stateMutability": "view",
      "type": "function"
    },
    {
      "inputs": [
        {
          "internalType": "uint256",
          "name": "",
          "type": "uint256"
        }
      ],
      "name": "rookieTokenID",
      "outputs": [
        {
          "internalType": "uint256",
          "name": "",
          "type": "uint256"
        }
      ],
      "stateMutability": "view",
      "type": "function"
    },
    {
      "inputs": [
        {
          "internalType": "address",
          "name": "from",
          "type": "address"
        },
        {
          "internalType": "address",
          "name": "to",
          "type": "address"
        },
        {
          "internalType": "uint256",
          "name": "tokenId",
          "type": "uint256"
        }
      ],
      "name": "safeTransferFrom",
      "outputs": [],
      "stateMutability": "nonpayable",
      "type": "function"
    },
    {
      "inputs": [
        {
          "internalType": "address",
          "name": "from",
          "type": "address"
        },
        {
          "internalType": "address",
          "name": "to",
          "type": "address"
        },
        {
          "internalType": "uint256",
          "name": "tokenId",
          "type": "uint256"
        },
        {
          "internalType": "bytes",
          "name": "data",
          "type": "bytes"
        }
      ],
      "name": "safeTransferFrom",
      "outputs": [],
      "stateMutability": "nonpayable",
      "type": "function"
    },
    {
      "inputs": [],
      "name": "seriesMint",
      "outputs": [
        {
          "internalType": "bool",
          "name": "",
          "type": "bool"
        }
      ],
      "stateMutability": "view",
      "type": "function"
    },
    {
      "inputs": [
        {
          "internalType": "address",
          "name": "operator",
          "type": "address"
        },
        {
          "internalType": "bool",
          "name": "approved",
          "type": "bool"
        }
      ],
      "name": "setApprovalForAll",
      "outputs": [],
      "stateMutability": "nonpayable",
      "type": "function"
    },
    {
      "inputs": [
        {
          "internalType": "string",
          "name": "baseTokenUri_",
          "type": "string"
        }
      ],
      "name": "setBaseTokenUri",
      "outputs": [],
      "stateMutability": "nonpayable",
      "type": "function"
    },
    {
      "inputs": [
        {
          "internalType": "uint256",
          "name": "rookieCap_",
          "type": "uint256"
        },
        {
          "internalType": "uint256",
          "name": "veteranCap_",
          "type": "uint256"
        },
        {
          "internalType": "uint256",
          "name": "allProCap_",
          "type": "uint256"
        }
      ],
      "name": "setMintCaps",
      "outputs": [],
      "stateMutability": "nonpayable",
      "type": "function"
    },
    {
      "inputs": [],
      "name": "setSeriesMint",
      "outputs": [],
      "stateMutability": "nonpayable",
      "type": "function"
    },
    {
      "inputs": [
        {
          "internalType": "bytes4",
          "name": "interfaceId",
          "type": "bytes4"
        }
      ],
      "name": "supportsInterface",
      "outputs": [
        {
          "internalType": "bool",
          "name": "",
          "type": "bool"
        }
      ],
      "stateMutability": "view",
      "type": "function"
    },
    {
      "inputs": [],
      "name": "symbol",
      "outputs": [
        {
          "internalType": "string",
          "name": "",
          "type": "string"
        }
      ],
      "stateMutability": "view",
      "type": "function"
    },
    {
      "inputs": [
        {
          "internalType": "uint256",
          "name": "tokenId_",
          "type": "uint256"
        }
      ],
      "name": "tokenURI",
      "outputs": [
        {
          "internalType": "string",
          "name": "",
          "type": "string"
        }
      ],
      "stateMutability": "view",
      "type": "function"
    },
    {
      "inputs": [],
      "name": "totalSupply",
      "outputs": [
        {
          "internalType": "uint256",
          "name": "",
          "type": "uint256"
        }
      ],
      "stateMutability": "view",
      "type": "function"
    },
    {
      "inputs": [
        {
          "internalType": "address",
          "name": "from",
          "type": "address"
        },
        {
          "internalType": "address",
          "name": "to",
          "type": "address"
        },
        {
          "internalType": "uint256",
          "name": "tokenId",
          "type": "uint256"
        }
      ],
      "name": "transferFrom",
      "outputs": [],
      "stateMutability": "nonpayable",
      "type": "function"
    },
    {
      "inputs": [
        {
          "internalType": "address",
          "name": "newOwner",
          "type": "address"
        }
      ],
      "name": "transferOwnership",
      "outputs": [],
      "stateMutability": "nonpayable",
      "type": "function"
    },
    {
      "inputs": [
        {
          "internalType": "uint256",
          "name": "quantity_",
          "type": "uint256"
        }
      ],
      "name": "vMint",
      "outputs": [],
      "stateMutability": "payable",
      "type": "function"
    },
    {
      "inputs": [],
      "name": "veteranCap",
      "outputs": [
        {
          "internalType": "uint256",
          "name": "",
          "type": "uint256"
        }
      ],
      "stateMutability": "view",
      "type": "function"
    },
    {
      "inputs": [],
      "name": "veteranCounter",
      "outputs": [
        {
          "internalType": "uint256",
          "name": "",
          "type": "uint256"
        }
      ],
      "stateMutability": "view",
      "type": "function"
    },
    {
      "inputs": [],
      "name": "veteranMintPrice",
      "outputs": [
        {
          "internalType": "uint256",
          "name": "",
          "type": "uint256"
        }
      ],
      "stateMutability": "view",
      "type": "function"
    },
    {
      "inputs": [
        {
          "internalType": "uint256",
          "name": "",
          "type": "uint256"
        }
      ],
      "name": "veteranTokenID",
      "outputs": [
        {
          "internalType": "uint256",
          "name": "",
          "type": "uint256"
        }
      ],
      "stateMutability": "view",
      "type": "function"
    }
  ],
  "bytecode": "0x60806040526040518060400160405280601081526020017f5468655375706572624f776c436c7562000000000000000000000000000000008152506040518060400160405280600481526020017f54534f43000000000000000000000000000000000000000000000000000000008152508160009080519060200190620000889291906200025d565b508060019080519060200190620000a19291906200025d565b505050620000c4620000b86200018f60201b60201c565b6200019760201b60201c565b6000600660146101000a81548160ff02191690831515021790555068056bc75e2d6310000060078190555066b1a2bc2ec500006008819055506703782dace9d900006009819055506706f05b59d3b20000600a819055506001600b81905550612710600f819055506000601081905550600060118190555060405180608001604052806050815260200162004cee60509139601390805190602001906200016d9291906200025d565b506000601460006101000a81548160ff02191690831515021790555062000372565b600033905090565b6000600660009054906101000a900473ffffffffffffffffffffffffffffffffffffffff16905081600660006101000a81548173ffffffffffffffffffffffffffffffffffffffff021916908373ffffffffffffffffffffffffffffffffffffffff1602179055508173ffffffffffffffffffffffffffffffffffffffff168173ffffffffffffffffffffffffffffffffffffffff167f8be0079c531659141344cd1fd0a4f28419497f9722a3daafe3b4186f6b6457e060405160405180910390a35050565b8280546200026b906200030d565b90600052602060002090601f0160209004810192826200028f5760008555620002db565b82601f10620002aa57805160ff1916838001178555620002db565b82800160010185558215620002db579182015b82811115620002da578251825591602001919060010190620002bd565b5b509050620002ea9190620002ee565b5090565b5b8082111562000309576000816000905550600101620002ef565b5090565b600060028204905060018216806200032657607f821691505b602082108114156200033d576200033c62000343565b5b50919050565b7f4e487b7100000000000000000000000000000000000000000000000000000000600052602260045260246000fd5b61496c80620003826000396000f3fe6080604052600436106102675760003560e01c80637fb4e93e11610144578063bdf64fd8116100b6578063d5dcc9071161007a578063d5dcc9071461091b578063e985e9c514610946578063edaa763114610983578063f2fde38b146109ae578063f8aaf513146109d7578063facae10d146109ee57610267565b8063bdf64fd814610841578063c5f010551461086c578063c87b56dd14610897578063c944485e146108d4578063cc0cf83a146108ff57610267565b8063a22cb46511610108578063a22cb46514610730578063a74bb7a814610759578063b4bb66d814610775578063b88d4fde146107b2578063bb33b5f0146107db578063bb97fa811461081857610267565b80637fb4e93e1461065b57806383f4d8e2146106865780638da5cb5b146106b157806395652cfa146106dc57806395d89b411461070557610267565b80632d82a6df116101dd5780636352211e116101a15780636352211e146105395780636817c76c1461057657806370a08231146105a1578063711e82ee146105de578063715018a6146106075780637bf086211461061e57610267565b80632d82a6df1461046657806342842e0e146104915780635b2ec42f146104ba5780635c975abb146104f75780635ed7ca5b1461052257610267565b806318160ddd1161022f57806318160ddd146103655780631bb3db9d146103905780631fb74f1a146103b957806323b872dd146103e457806325aeffcc1461040d578063281b188a1461042957610267565b806301ffc9a71461026c57806306fdde03146102a9578063081812fc146102d4578063095ea7b3146103115780630e22643b1461033a575b600080fd5b34801561027857600080fd5b50610293600480360381019061028e9190613388565b610a17565b6040516102a09190613ad1565b60405180910390f35b3480156102b557600080fd5b506102be610af9565b6040516102cb9190613aec565b60405180910390f35b3480156102e057600080fd5b506102fb60048036038101906102f69190613473565b610b8b565b6040516103089190613a6a565b60405180910390f35b34801561031d57600080fd5b506103386004803603810190610333919061334c565b610bd1565b005b34801561034657600080fd5b5061034f610ce9565b60405161035c9190613dce565b60405180910390f35b34801561037157600080fd5b5061037a610cef565b6040516103879190613dce565b60405180910390f35b34801561039c57600080fd5b506103b760048036038101906103b2919061341f565b610cf5565b005b3480156103c557600080fd5b506103ce610e01565b6040516103db9190613dce565b60405180910390f35b3480156103f057600080fd5b5061040b60048036038101906104069190613246565b610e07565b005b61042760048036038101906104229190613473565b610e67565b005b34801561043557600080fd5b50610450600480360381019061044b9190613473565b611114565b60405161045d9190613dce565b60405180910390f35b34801561047257600080fd5b5061047b61112c565b6040516104889190613dce565b60405180910390f35b34801561049d57600080fd5b506104b860048036038101906104b39190613246565b611132565b005b3480156104c657600080fd5b506104e160048036038101906104dc9190613473565b611152565b6040516104ee9190613ad1565b60405180910390f35b34801561050357600080fd5b5061050c611172565b6040516105199190613ad1565b60405180910390f35b34801561052e57600080fd5b50610537611189565b005b34801561054557600080fd5b50610560600480360381019061055b9190613473565b6111b6565b60405161056d9190613a6a565b60405180910390f35b34801561058257600080fd5b5061058b611268565b6040516105989190613dce565b60405180910390f35b3480156105ad57600080fd5b506105c860048036038101906105c391906131a5565b61126e565b6040516105d59190613dce565b60405180910390f35b3480156105ea57600080fd5b506106056004803603810190610600919061341f565b611326565b005b34801561061357600080fd5b5061061c611412565b005b34801561062a57600080fd5b50610645600480360381019061064091906131ce565b611426565b6040516106529190613ad1565b60405180910390f35b34801561066757600080fd5b506106706114ef565b60405161067d9190613dce565b60405180910390f35b34801561069257600080fd5b5061069b6114f5565b6040516106a89190613dce565b60405180910390f35b3480156106bd57600080fd5b506106c66114fb565b6040516106d39190613a6a565b60405180910390f35b3480156106e857600080fd5b5061070360048036038101906106fe91906133da565b611525565b005b34801561071157600080fd5b5061071a611543565b6040516107279190613aec565b60405180910390f35b34801561073c57600080fd5b5061075760048036038101906107529190613310565b6115d5565b005b610773600480360381019061076e9190613473565b6115eb565b005b34801561078157600080fd5b5061079c60048036038101906107979190613473565b611847565b6040516107a99190613dce565b60405180910390f35b3480156107be57600080fd5b506107d960048036038101906107d49190613295565b61185f565b005b3480156107e757600080fd5b5061080260048036038101906107fd9190613473565b6118c1565b60405161080f9190613dce565b60405180910390f35b34801561082457600080fd5b5061083f600480360381019061083a919061349c565b6118d9565b005b34801561084d57600080fd5b506108566118fb565b6040516108639190613dce565b60405180910390f35b34801561087857600080fd5b50610881611901565b60405161088e9190613dce565b60405180910390f35b3480156108a357600080fd5b506108be60048036038101906108b99190613473565b611907565b6040516108cb9190613aec565b60405180910390f35b3480156108e057600080fd5b506108e9611abc565b6040516108f69190613dce565b60405180910390f35b61091960048036038101906109149190613473565b611ac2565b005b34801561092757600080fd5b50610930611d1e565b60405161093d9190613ad1565b60405180910390f35b34801561095257600080fd5b5061096d6004803603810190610968919061320a565b611d31565b60405161097a9190613ad1565b60405180910390f35b34801561098f57600080fd5b50610998611dc5565b6040516109a59190613dce565b60405180910390f35b3480156109ba57600080fd5b506109d560048036038101906109d091906131a5565b611dcb565b005b3480156109e357600080fd5b506109ec611e4f565b005b3480156109fa57600080fd5b50610a156004803603810190610a10919061341f565b611eaa565b005b60007f80ac58cd000000000000000000000000000000000000000000000000000000007bffffffffffffffffffffffffffffffffffffffffffffffffffffffff1916827bffffffffffffffffffffffffffffffffffffffffffffffffffffffff19161480610ae257507f5b5e139f000000000000000000000000000000000000000000000000000000007bffffffffffffffffffffffffffffffffffffffffffffffffffffffff1916827bffffffffffffffffffffffffffffffffffffffffffffffffffffffff1916145b80610af25750610af182611fb6565b5b9050919050565b606060008054610b08906140a5565b80601f0160208091040260200160405190810160405280929190818152602001828054610b34906140a5565b8015610b815780601f10610b5657610100808354040283529160200191610b81565b820191906000526020600020905b815481529060010190602001808311610b6457829003601f168201915b5050505050905090565b6000610b9682612020565b6004600083815260200190815260200160002060009054906101000a900473ffffffffffffffffffffffffffffffffffffffff169050919050565b6000610bdc826111b6565b90508073ffffffffffffffffffffffffffffffffffffffff168373ffffffffffffffffffffffffffffffffffffffff161415610c4d576040517f08c379a0000000000000000000000000000000000000000000000000000000008152600401610c4490613d4e565b60405180910390fd5b8073ffffffffffffffffffffffffffffffffffffffff16610c6c61206b565b73ffffffffffffffffffffffffffffffffffffffff161480610c9b5750610c9a81610c9561206b565b611d31565b5b610cda576040517f08c379a0000000000000000000000000000000000000000000000000000000008152600401610cd190613cce565b60405180910390fd5b610ce48383612073565b505050565b600c5481565b600b5481565b610cfd61212c565b60008190505b602080600e54610d139190613f14565b610d1d9190613f45565b8111610dfc5760001515601960006018600085815260200190815260200160002054815260200190815260200160002060009054906101000a900460ff1615151415610de957610da9601860008381526020019081526020016000205484610d84846121aa565b604051602001610d959291906139a6565b604051602081830303815290604052612357565b6001601960006018600085815260200190815260200160002054815260200190815260200160002060006101000a81548160ff0219169083151502179055505b8080610df490614108565b915050610d03565b505050565b60115481565b610e18610e1261206b565b826123f6565b610e57576040517f08c379a0000000000000000000000000000000000000000000000000000000008152600401610e4e90613d8e565b60405180910390fd5b610e6283838361248b565b505050565b610e6f6126f2565b600854600781905550601460009054906101000a900460ff1615610ed15760208114610ed0576040517f08c379a0000000000000000000000000000000000000000000000000000000008152600401610ec790613bce565b60405180910390fd5b5b7317b08de2deefb7fdb4bd68b2c74229b8a22067fc73ffffffffffffffffffffffffffffffffffffffff163373ffffffffffffffffffffffffffffffffffffffff161415610f225760006007819055505b3273ffffffffffffffffffffffffffffffffffffffff163373ffffffffffffffffffffffffffffffffffffffff1614610f90576040517f08c379a0000000000000000000000000000000000000000000000000000000008152600401610f8790613c2e565b60405180910390fd5b600f5481600c54610fa19190613ebe565b1115610fe2576040517f08c379a0000000000000000000000000000000000000000000000000000000008152600401610fd990613bae565b60405180910390fd5b60075481610ff09190613f45565b34148160075434604051602001611009939291906139f7565b60405160208183030381529060405290611059576040517f08c379a00000000000000000000000000000000000000000000000000000000081526004016110509190613aec565b60405180910390fd5b5060005b81811015611100576000600b549050600b600081548092919061107f90614108565b919050555060006019600083815260200190815260200160002060006101000a81548160ff021916908315150217905550600c60008154809291906110c390614108565b91905055508060166000600c548152602001908152602001600020819055506110ec338261273c565b5080806110f890614108565b91505061105d565b5068056bc75e2d6310000060078190555050565b60176020528060005260406000206000915090505481565b60095481565b61114d8383836040518060200160405280600081525061185f565b505050565b60196020528060005260406000206000915054906101000a900460ff1681565b6000600660149054906101000a900460ff16905090565b61119161212c565b611199611172565b156111ab576111a6612916565b6111b4565b6111b3612979565b5b565b6000806002600084815260200190815260200160002060009054906101000a900473ffffffffffffffffffffffffffffffffffffffff169050600073ffffffffffffffffffffffffffffffffffffffff168173ffffffffffffffffffffffffffffffffffffffff16141561125f576040517f08c379a000000000000000000000000000000000000000000000000000000000815260040161125690613d2e565b60405180910390fd5b80915050919050565b60075481565b60008073ffffffffffffffffffffffffffffffffffffffff168273ffffffffffffffffffffffffffffffffffffffff1614156112df576040517f08c379a00000000000000000000000000000000000000000000000000000000081526004016112d690613c8e565b60405180910390fd5b600360008373ffffffffffffffffffffffffffffffffffffffff1673ffffffffffffffffffffffffffffffffffffffff168152602001908152602001600020549050919050565b61132e61212c565b60008190505b602080600c546113449190613f14565b61134e9190613f45565b811161140d57600060166000838152602001908152602001600020549050600015156019600083815260200190815260200160002060009054906101000a900460ff16151514156113f9576113cc81856113a7856121aa565b6040516020016113b89291906139a6565b604051602081830303815290604052612357565b60016019600083815260200190815260200160002060006101000a81548160ff0219169083151502179055505b50808061140590614108565b915050611334565b505050565b61141a61212c565b61142460006129dc565b565b60006114306126f2565b61143861212c565b60008373ffffffffffffffffffffffffffffffffffffffff168360405161145e90613a55565b60006040518083038185875af1925050503d806000811461149b576040519150601f19603f3d011682016040523d82523d6000602084013e6114a0565b606091505b50509050806114e4576040517f08c379a00000000000000000000000000000000000000000000000000000000081526004016114db90613cae565b60405180910390fd5b600191505092915050565b600d5481565b60085481565b6000600660009054906101000a900473ffffffffffffffffffffffffffffffffffffffff16905090565b61152d61212c565b81816012919061153e929190612ee4565b505050565b606060018054611552906140a5565b80601f016020809104026020016040519081016040528092919081815260200182805461157e906140a5565b80156115cb5780601f106115a0576101008083540402835291602001916115cb565b820191906000526020600020905b8154815290600101906020018083116115ae57829003601f168201915b5050505050905090565b6115e76115e061206b565b8383612aa2565b5050565b6115f36126f2565b601460009054906101000a900460ff161561164c576020811461164b576040517f08c379a000000000000000000000000000000000000000000000000000000000815260040161164290613bce565b60405180910390fd5b5b3273ffffffffffffffffffffffffffffffffffffffff163373ffffffffffffffffffffffffffffffffffffffff16146116ba576040517f08c379a00000000000000000000000000000000000000000000000000000000081526004016116b190613c2e565b60405180910390fd5b60115481600e546116cb9190613ebe565b111561170c576040517f08c379a000000000000000000000000000000000000000000000000000000000815260040161170390613c6e565b60405180910390fd5b600a548161171a9190613f45565b34148160075434604051602001611733939291906139f7565b60405160208183030381529060405290611783576040517f08c379a000000000000000000000000000000000000000000000000000000000815260040161177a9190613aec565b60405180910390fd5b5060005b8181101561183357600a546007819055506000600b549050600b60008154809291906117b290614108565b919050555060006019600083815260200190815260200160002060006101000a81548160ff021916908315150217905550600e60008154809291906117f690614108565b91905055508060186000600e5481526020019081526020016000208190555061181f338261273c565b50808061182b90614108565b915050611787565b5068056bc75e2d6310000060078190555050565b60186020528060005260406000206000915090505481565b61187061186a61206b565b836123f6565b6118af576040517f08c379a00000000000000000000000000000000000000000000000000000000081526004016118a690613d8e565b60405180910390fd5b6118bb84848484612c0f565b50505050565b60166020528060005260406000206000915090505481565b6118e161212c565b82600f819055508160108190555080601181905550505050565b600a5481565b600f5481565b60606119116126f2565b61191a82612c6b565b611959576040517f08c379a000000000000000000000000000000000000000000000000000000000815260040161195090613dae565b60405180910390fd5b600115156019600084815260200190815260200160002060009054906101000a900460ff1615151415611a29576015600083815260200190815260200160002080546119a4906140a5565b80601f01602080910402602001604051908101604052809291908181526020018280546119d0906140a5565b8015611a1d5780601f106119f257610100808354040283529160200191611a1d565b820191906000526020600020905b815481529060010190602001808311611a0057829003601f168201915b50505050509050611ab7565b60138054611a36906140a5565b80601f0160208091040260200160405190810160405280929190818152602001828054611a62906140a5565b8015611aaf5780601f10611a8457610100808354040283529160200191611aaf565b820191906000526020600020905b815481529060010190602001808311611a9257829003601f168201915b505050505090505b919050565b60105481565b611aca6126f2565b601460009054906101000a900460ff1615611b235760208114611b22576040517f08c379a0000000000000000000000000000000000000000000000000000000008152600401611b1990613bce565b60405180910390fd5b5b3273ffffffffffffffffffffffffffffffffffffffff163373ffffffffffffffffffffffffffffffffffffffff1614611b91576040517f08c379a0000000000000000000000000000000000000000000000000000000008152600401611b8890613c2e565b60405180910390fd5b60105481600d54611ba29190613ebe565b1115611be3576040517f08c379a0000000000000000000000000000000000000000000000000000000008152600401611bda90613d6e565b60405180910390fd5b60095481611bf19190613f45565b34148160075434604051602001611c0a939291906139f7565b60405160208183030381529060405290611c5a576040517f08c379a0000000000000000000000000000000000000000000000000000000008152600401611c519190613aec565b60405180910390fd5b5060005b81811015611d0a576009546007819055506000600b549050600b6000815480929190611c8990614108565b919050555060006019600083815260200190815260200160002060006101000a81548160ff021916908315150217905550600d6000815480929190611ccd90614108565b91905055508060176000600d54815260200190815260200160002081905550611cf6338261273c565b508080611d0290614108565b915050611c5e565b5068056bc75e2d6310000060078190555050565b601460009054906101000a900460ff1681565b6000600560008473ffffffffffffffffffffffffffffffffffffffff1673ffffffffffffffffffffffffffffffffffffffff16815260200190815260200160002060008373ffffffffffffffffffffffffffffffffffffffff1673ffffffffffffffffffffffffffffffffffffffff16815260200190815260200160002060009054906101000a900460ff16905092915050565b600e5481565b611dd361212c565b600073ffffffffffffffffffffffffffffffffffffffff168173ffffffffffffffffffffffffffffffffffffffff161415611e43576040517f08c379a0000000000000000000000000000000000000000000000000000000008152600401611e3a90613b4e565b60405180910390fd5b611e4c816129dc565b50565b611e5761212c565b601460009054906101000a900460ff1615611e8c576000601460006101000a81548160ff021916908315150217905550611ea8565b6001601460006101000a81548160ff0219169083151502179055505b565b611eb261212c565b60008190505b602080600d54611ec89190613f14565b611ed29190613f45565b8111611fb15760001515601960006017600085815260200190815260200160002054815260200190815260200160002060009054906101000a900460ff1615151415611f9e57611f5e601760008381526020019081526020016000205484611f39846121aa565b604051602001611f4a9291906139a6565b604051602081830303815290604052612357565b6001601960006017600085815260200190815260200160002054815260200190815260200160002060006101000a81548160ff0219169083151502179055505b8080611fa990614108565b915050611eb8565b505050565b60007f01ffc9a7000000000000000000000000000000000000000000000000000000007bffffffffffffffffffffffffffffffffffffffffffffffffffffffff1916827bffffffffffffffffffffffffffffffffffffffffffffffffffffffff1916149050919050565b61202981612c6b565b612068576040517f08c379a000000000000000000000000000000000000000000000000000000000815260040161205f90613d2e565b60405180910390fd5b50565b600033905090565b816004600083815260200190815260200160002060006101000a81548173ffffffffffffffffffffffffffffffffffffffff021916908373ffffffffffffffffffffffffffffffffffffffff160217905550808273ffffffffffffffffffffffffffffffffffffffff166120e6836111b6565b73ffffffffffffffffffffffffffffffffffffffff167f8c5be1e5ebec7d5bd14f71427d1e84f3dd0314c0f7b2291e5b200ac8c7c3b92560405160405180910390a45050565b61213461206b565b73ffffffffffffffffffffffffffffffffffffffff166121526114fb565b73ffffffffffffffffffffffffffffffffffffffff16146121a8576040517f08c379a000000000000000000000000000000000000000000000000000000000815260040161219f90613d0e565b60405180910390fd5b565b606060008214156121f2576040518060400160405280600181526020017f30000000000000000000000000000000000000000000000000000000000000008152509050612352565b600082905060005b6000821461222457808061220d90614108565b915050600a8261221d9190613f14565b91506121fa565b60008167ffffffffffffffff811115612266577f4e487b7100000000000000000000000000000000000000000000000000000000600052604160045260246000fd5b6040519080825280601f01601f1916602001820160405280156122985781602001600182028036833780820191505090505b5090505b6000851461234b576001826122b19190613f9f565b9150600a856122c0919061415b565b60306122cc9190613ebe565b60f81b818381518110612308577f4e487b7100000000000000000000000000000000000000000000000000000000600052603260045260246000fd5b60200101907effffffffffffffffffffffffffffffffffffffffffffffffffffffffffffff1916908160001a905350600a856123449190613f14565b945061229c565b8093505050505b919050565b61236082612c6b565b612369836121aa565b60405160200161237991906139d5565b604051602081830303815290604052906123c9576040517f08c379a00000000000000000000000000000000000000000000000000000000081526004016123c09190613aec565b60405180910390fd5b50806015600084815260200190815260200160002090805190602001906123f1929190612f6a565b505050565b600080612402836111b6565b90508073ffffffffffffffffffffffffffffffffffffffff168473ffffffffffffffffffffffffffffffffffffffff16148061244457506124438185611d31565b5b8061248257508373ffffffffffffffffffffffffffffffffffffffff1661246a84610b8b565b73ffffffffffffffffffffffffffffffffffffffff16145b91505092915050565b8273ffffffffffffffffffffffffffffffffffffffff166124ab826111b6565b73ffffffffffffffffffffffffffffffffffffffff1614612501576040517f08c379a00000000000000000000000000000000000000000000000000000000081526004016124f890613b6e565b60405180910390fd5b600073ffffffffffffffffffffffffffffffffffffffff168273ffffffffffffffffffffffffffffffffffffffff161415612571576040517f08c379a000000000000000000000000000000000000000000000000000000000815260040161256890613bee565b60405180910390fd5b61257c838383612cd7565b612587600082612073565b6001600360008573ffffffffffffffffffffffffffffffffffffffff1673ffffffffffffffffffffffffffffffffffffffff16815260200190815260200160002060008282546125d79190613f9f565b925050819055506001600360008473ffffffffffffffffffffffffffffffffffffffff1673ffffffffffffffffffffffffffffffffffffffff168152602001908152602001600020600082825461262e9190613ebe565b92505081905550816002600083815260200190815260200160002060006101000a81548173ffffffffffffffffffffffffffffffffffffffff021916908373ffffffffffffffffffffffffffffffffffffffff160217905550808273ffffffffffffffffffffffffffffffffffffffff168473ffffffffffffffffffffffffffffffffffffffff167fddf252ad1be2c89b69c2b068fc378daa952ba7f163c4a11628f55a4df523b3ef60405160405180910390a46126ed838383612cdc565b505050565b6126fa611172565b1561273a576040517f08c379a000000000000000000000000000000000000000000000000000000000815260040161273190613c4e565b60405180910390fd5b565b600073ffffffffffffffffffffffffffffffffffffffff168273ffffffffffffffffffffffffffffffffffffffff1614156127ac576040517f08c379a00000000000000000000000000000000000000000000000000000000081526004016127a390613cee565b60405180910390fd5b6127b581612c6b565b156127f5576040517f08c379a00000000000000000000000000000000000000000000000000000000081526004016127ec90613b8e565b60405180910390fd5b61280160008383612cd7565b6001600360008473ffffffffffffffffffffffffffffffffffffffff1673ffffffffffffffffffffffffffffffffffffffff16815260200190815260200160002060008282546128519190613ebe565b92505081905550816002600083815260200190815260200160002060006101000a81548173ffffffffffffffffffffffffffffffffffffffff021916908373ffffffffffffffffffffffffffffffffffffffff160217905550808273ffffffffffffffffffffffffffffffffffffffff16600073ffffffffffffffffffffffffffffffffffffffff167fddf252ad1be2c89b69c2b068fc378daa952ba7f163c4a11628f55a4df523b3ef60405160405180910390a461291260008383612cdc565b5050565b61291e612ce1565b6000600660146101000a81548160ff0219169083151502179055507f5db9ee0a495bf2e6ff9c91a7834c1ba4fdd244a5e8aa4e537bd38aeae4b073aa61296261206b565b60405161296f9190613a6a565b60405180910390a1565b6129816126f2565b6001600660146101000a81548160ff0219169083151502179055507f62e78cea01bee320cd4e420270b5ea74000d11b0c9f74754ebdbfc544b05a2586129c561206b565b6040516129d29190613a6a565b60405180910390a1565b6000600660009054906101000a900473ffffffffffffffffffffffffffffffffffffffff16905081600660006101000a81548173ffffffffffffffffffffffffffffffffffffffff021916908373ffffffffffffffffffffffffffffffffffffffff1602179055508173ffffffffffffffffffffffffffffffffffffffff168173ffffffffffffffffffffffffffffffffffffffff167f8be0079c531659141344cd1fd0a4f28419497f9722a3daafe3b4186f6b6457e060405160405180910390a35050565b8173ffffffffffffffffffffffffffffffffffffffff168373ffffffffffffffffffffffffffffffffffffffff161415612b11576040517f08c379a0000000000000000000000000000000000000000000000000000000008152600401612b0890613c0e565b60405180910390fd5b80600560008573ffffffffffffffffffffffffffffffffffffffff1673ffffffffffffffffffffffffffffffffffffffff16815260200190815260200160002060008473ffffffffffffffffffffffffffffffffffffffff1673ffffffffffffffffffffffffffffffffffffffff16815260200190815260200160002060006101000a81548160ff0219169083151502179055508173ffffffffffffffffffffffffffffffffffffffff168373ffffffffffffffffffffffffffffffffffffffff167f17307eab39ab6107e8899845ad3d59bd9653f200f220920489ca2b5937696c3183604051612c029190613ad1565b60405180910390a3505050565b612c1a84848461248b565b612c2684848484612d2a565b612c65576040517f08c379a0000000000000000000000000000000000000000000000000000000008152600401612c5c90613b2e565b60405180910390fd5b50505050565b60008073ffffffffffffffffffffffffffffffffffffffff166002600084815260200190815260200160002060009054906101000a900473ffffffffffffffffffffffffffffffffffffffff1673ffffffffffffffffffffffffffffffffffffffff1614159050919050565b505050565b505050565b612ce9611172565b612d28576040517f08c379a0000000000000000000000000000000000000000000000000000000008152600401612d1f90613b0e565b60405180910390fd5b565b6000612d4b8473ffffffffffffffffffffffffffffffffffffffff16612ec1565b15612eb4578373ffffffffffffffffffffffffffffffffffffffff1663150b7a02612d7461206b565b8786866040518563ffffffff1660e01b8152600401612d969493929190613a85565b602060405180830381600087803b158015612db057600080fd5b505af1925050508015612de157506040513d601f19601f82011682018060405250810190612dde91906133b1565b60015b612e64573d8060008114612e11576040519150601f19603f3d011682016040523d82523d6000602084013e612e16565b606091505b50600081511415612e5c576040517f08c379a0000000000000000000000000000000000000000000000000000000008152600401612e5390613b2e565b60405180910390fd5b805181602001fd5b63150b7a0260e01b7bffffffffffffffffffffffffffffffffffffffffffffffffffffffff1916817bffffffffffffffffffffffffffffffffffffffffffffffffffffffff191614915050612eb9565b600190505b949350505050565b6000808273ffffffffffffffffffffffffffffffffffffffff163b119050919050565b828054612ef0906140a5565b90600052602060002090601f016020900481019282612f125760008555612f59565b82601f10612f2b57803560ff1916838001178555612f59565b82800160010185558215612f59579182015b82811115612f58578235825591602001919060010190612f3d565b5b509050612f669190612ff0565b5090565b828054612f76906140a5565b90600052602060002090601f016020900481019282612f985760008555612fdf565b82601f10612fb157805160ff1916838001178555612fdf565b82800160010185558215612fdf579182015b82811115612fde578251825591602001919060010190612fc3565b5b509050612fec9190612ff0565b5090565b5b80821115613009576000816000905550600101612ff1565b5090565b600061302061301b84613e0e565b613de9565b90508281526020810184848401111561303857600080fd5b613043848285614063565b509392505050565b600061305e61305984613e3f565b613de9565b90508281526020810184848401111561307657600080fd5b613081848285614063565b509392505050565b600081359050613098816148c3565b92915050565b6000813590506130ad816148da565b92915050565b6000813590506130c2816148f1565b92915050565b6000813590506130d781614908565b92915050565b6000815190506130ec81614908565b92915050565b600082601f83011261310357600080fd5b813561311384826020860161300d565b91505092915050565b60008083601f84011261312e57600080fd5b8235905067ffffffffffffffff81111561314757600080fd5b60208301915083600182028301111561315f57600080fd5b9250929050565b600082601f83011261317757600080fd5b813561318784826020860161304b565b91505092915050565b60008135905061319f8161491f565b92915050565b6000602082840312156131b757600080fd5b60006131c584828501613089565b91505092915050565b600080604083850312156131e157600080fd5b60006131ef8582860161309e565b925050602061320085828601613190565b9150509250929050565b6000806040838503121561321d57600080fd5b600061322b85828601613089565b925050602061323c85828601613089565b9150509250929050565b60008060006060848603121561325b57600080fd5b600061326986828701613089565b935050602061327a86828701613089565b925050604061328b86828701613190565b9150509250925092565b600080600080608085870312156132ab57600080fd5b60006132b987828801613089565b94505060206132ca87828801613089565b93505060406132db87828801613190565b925050606085013567ffffffffffffffff8111156132f857600080fd5b613304878288016130f2565b91505092959194509250565b6000806040838503121561332357600080fd5b600061333185828601613089565b9250506020613342858286016130b3565b9150509250929050565b6000806040838503121561335f57600080fd5b600061336d85828601613089565b925050602061337e85828601613190565b9150509250929050565b60006020828403121561339a57600080fd5b60006133a8848285016130c8565b91505092915050565b6000602082840312156133c357600080fd5b60006133d1848285016130dd565b91505092915050565b600080602083850312156133ed57600080fd5b600083013567ffffffffffffffff81111561340757600080fd5b6134138582860161311c565b92509250509250929050565b6000806040838503121561343257600080fd5b600083013567ffffffffffffffff81111561344c57600080fd5b61345885828601613166565b925050602061346985828601613190565b9150509250929050565b60006020828403121561348557600080fd5b600061349384828501613190565b91505092915050565b6000806000606084860312156134b157600080fd5b60006134bf86828701613190565b93505060206134d086828701613190565b92505060406134e186828701613190565b9150509250925092565b6134f481613fd3565b82525050565b61350381613ff7565b82525050565b600061351482613e70565b61351e8185613e86565b935061352e818560208601614072565b61353781614248565b840191505092915050565b61355361354e8261402f565b614151565b82525050565b600061356482613e7b565b61356e8185613ea2565b935061357e818560208601614072565b61358781614248565b840191505092915050565b600061359d82613e7b565b6135a78185613eb3565b93506135b7818560208601614072565b80840191505092915050565b60006135d0601483613ea2565b91506135db82614259565b602082019050919050565b60006135f3603283613ea2565b91506135fe82614282565b604082019050919050565b6000613616602683613ea2565b9150613621826142d1565b604082019050919050565b6000613639602583613ea2565b915061364482614320565b604082019050919050565b600061365c601c83613ea2565b91506136678261436f565b602082019050919050565b600061367f603983613ea2565b915061368a82614398565b604082019050919050565b60006136a2602883613ea2565b91506136ad826143e7565b604082019050919050565b60006136c5602483613ea2565b91506136d082614436565b604082019050919050565b60006136e8601983613ea2565b91506136f382614485565b602082019050919050565b600061370b602083613ea2565b9150613716826144ae565b602082019050919050565b600061372e601083613ea2565b9150613739826144d7565b602082019050919050565b6000613751603a83613ea2565b915061375c82614500565b604082019050919050565b6000613774602983613ea2565b915061377f8261454f565b604082019050919050565b6000613797600e83613ea2565b91506137a28261459e565b602082019050919050565b60006137ba603e83613ea2565b91506137c5826145c7565b604082019050919050565b60006137dd602083613ea2565b91506137e882614616565b602082019050919050565b6000613800600583613eb3565b915061380b8261463f565b600582019050919050565b6000613823602c83613eb3565b915061382e82614668565b602c82019050919050565b6000613846602083613ea2565b9150613851826146b7565b602082019050919050565b6000613869602383613eb3565b9150613874826146e0565b602382019050919050565b600061388c601883613ea2565b91506138978261472f565b602082019050919050565b60006138af602183613ea2565b91506138ba82614758565b604082019050919050565b60006138d2600083613e97565b91506138dd826147a7565b600082019050919050565b60006138f5603a83613ea2565b9150613900826147aa565b604082019050919050565b6000613918602e83613ea2565b9150613923826147f9565b604082019050919050565b600061393b601383613eb3565b915061394682614848565b601382019050919050565b600061395e601583613ea2565b915061396982614871565b602082019050919050565b6000613981601683613eb3565b915061398c8261489a565b601682019050919050565b6139a081614059565b82525050565b60006139b28285613592565b91506139be8284613592565b91506139c9826137f3565b91508190509392505050565b60006139e082613816565b91506139ec8284613592565b915081905092915050565b6000613a028261385c565b9150613a0e8286613542565b602082019150613a1d8261392e565b9150613a298285613542565b602082019150613a3882613974565b9150613a448284613542565b602082019150819050949350505050565b6000613a60826138c5565b9150819050919050565b6000602082019050613a7f60008301846134eb565b92915050565b6000608082019050613a9a60008301876134eb565b613aa760208301866134eb565b613ab46040830185613997565b8181036060830152613ac68184613509565b905095945050505050565b6000602082019050613ae660008301846134fa565b92915050565b60006020820190508181036000830152613b068184613559565b905092915050565b60006020820190508181036000830152613b27816135c3565b9050919050565b60006020820190508181036000830152613b47816135e6565b9050919050565b60006020820190508181036000830152613b6781613609565b9050919050565b60006020820190508181036000830152613b878161362c565b9050919050565b60006020820190508181036000830152613ba78161364f565b9050919050565b60006020820190508181036000830152613bc781613672565b9050919050565b60006020820190508181036000830152613be781613695565b9050919050565b60006020820190508181036000830152613c07816136b8565b9050919050565b60006020820190508181036000830152613c27816136db565b9050919050565b60006020820190508181036000830152613c47816136fe565b9050919050565b60006020820190508181036000830152613c6781613721565b9050919050565b60006020820190508181036000830152613c8781613744565b9050919050565b60006020820190508181036000830152613ca781613767565b9050919050565b60006020820190508181036000830152613cc78161378a565b9050919050565b60006020820190508181036000830152613ce7816137ad565b9050919050565b60006020820190508181036000830152613d07816137d0565b9050919050565b60006020820190508181036000830152613d2781613839565b9050919050565b60006020820190508181036000830152613d478161387f565b9050919050565b60006020820190508181036000830152613d67816138a2565b9050919050565b60006020820190508181036000830152613d87816138e8565b9050919050565b60006020820190508181036000830152613da78161390b565b9050919050565b60006020820190508181036000830152613dc781613951565b9050919050565b6000602082019050613de36000830184613997565b92915050565b6000613df3613e04565b9050613dff82826140d7565b919050565b6000604051905090565b600067ffffffffffffffff821115613e2957613e28614219565b5b613e3282614248565b9050602081019050919050565b600067ffffffffffffffff821115613e5a57613e59614219565b5b613e6382614248565b9050602081019050919050565b600081519050919050565b600081519050919050565b600082825260208201905092915050565b600081905092915050565b600082825260208201905092915050565b600081905092915050565b6000613ec982614059565b9150613ed483614059565b9250827fffffffffffffffffffffffffffffffffffffffffffffffffffffffffffffffff03821115613f0957613f0861418c565b5b828201905092915050565b6000613f1f82614059565b9150613f2a83614059565b925082613f3a57613f396141bb565b5b828204905092915050565b6000613f5082614059565b9150613f5b83614059565b9250817fffffffffffffffffffffffffffffffffffffffffffffffffffffffffffffffff0483118215151615613f9457613f9361418c565b5b828202905092915050565b6000613faa82614059565b9150613fb583614059565b925082821015613fc857613fc761418c565b5b828203905092915050565b6000613fde82614039565b9050919050565b6000613ff082614039565b9050919050565b60008115159050919050565b60007fffffffff0000000000000000000000000000000000000000000000000000000082169050919050565b6000819050919050565b600073ffffffffffffffffffffffffffffffffffffffff82169050919050565b6000819050919050565b82818337600083830152505050565b60005b83811015614090578082015181840152602081019050614075565b8381111561409f576000848401525b50505050565b600060028204905060018216806140bd57607f821691505b602082108114156140d1576140d06141ea565b5b50919050565b6140e082614248565b810181811067ffffffffffffffff821117156140ff576140fe614219565b5b80604052505050565b600061411382614059565b91507fffffffffffffffffffffffffffffffffffffffffffffffffffffffffffffffff8214156141465761414561418c565b5b600182019050919050565b6000819050919050565b600061416682614059565b915061417183614059565b925082614181576141806141bb565b5b828206905092915050565b7f4e487b7100000000000000000000000000000000000000000000000000000000600052601160045260246000fd5b7f4e487b7100000000000000000000000000000000000000000000000000000000600052601260045260246000fd5b7f4e487b7100000000000000000000000000000000000000000000000000000000600052602260045260246000fd5b7f4e487b7100000000000000000000000000000000000000000000000000000000600052604160045260246000fd5b6000601f19601f8301169050919050565b7f5061757361626c653a206e6f7420706175736564000000000000000000000000600082015250565b7f4552433732313a207472616e7366657220746f206e6f6e20455243373231526560008201527f63656976657220696d706c656d656e7465720000000000000000000000000000602082015250565b7f4f776e61626c653a206e6577206f776e657220697320746865207a65726f206160008201527f6464726573730000000000000000000000000000000000000000000000000000602082015250565b7f4552433732313a207472616e736665722066726f6d20696e636f72726563742060008201527f6f776e6572000000000000000000000000000000000000000000000000000000602082015250565b7f4552433732313a20746f6b656e20616c7265616479206d696e74656400000000600082015250565b7f526f6f6b69652069732063757272656e746c79206f7574206f662073746f636b60008201527f2e20436865636b206261636b20616761696e206c617465722100000000000000602082015250565b7f43757272656e746c79206f6e6c792066756c6c207365726965732063616e206260008201527f65206d696e746564000000000000000000000000000000000000000000000000602082015250565b7f4552433732313a207472616e7366657220746f20746865207a65726f2061646460008201527f7265737300000000000000000000000000000000000000000000000000000000602082015250565b7f4552433732313a20617070726f766520746f2063616c6c657200000000000000600082015250565b7f4e6f20626f747320616c6c6f77656420666f72206d696e74696e672074686973600082015250565b7f5061757361626c653a2070617573656400000000000000000000000000000000600082015250565b7f416c6c2d50726f2069732063757272656e746c79206f7574206f662073746f6360008201527f6b2e20436865636b206261636b20616761696e206c6174657221000000000000602082015250565b7f4552433732313a2061646472657373207a65726f206973206e6f74206120766160008201527f6c6964206f776e65720000000000000000000000000000000000000000000000602082015250565b7f5061796d656e74206661696c6564000000000000000000000000000000000000600082015250565b7f4552433732313a20617070726f76652063616c6c6572206973206e6f7420746f60008201527f6b656e206f776e6572206e6f7220617070726f76656420666f7220616c6c0000602082015250565b7f4552433732313a206d696e7420746f20746865207a65726f2061646472657373600082015250565b7f2e6a736f6e000000000000000000000000000000000000000000000000000000600082015250565b7f4552433732314d657461646174613a2055524920736574206f66206e6f6e657860008201527f697374656e7420746f6b656e0000000000000000000000000000000000000000602082015250565b7f4f776e61626c653a2063616c6c6572206973206e6f7420746865206f776e6572600082015250565b7f77726f6e67206d696e742076616c75652e20546865207175616e74697479206960008201527f733a200000000000000000000000000000000000000000000000000000000000602082015250565b7f4552433732313a20696e76616c696420746f6b656e2049440000000000000000600082015250565b7f4552433732313a20617070726f76616c20746f2063757272656e74206f776e6560008201527f7200000000000000000000000000000000000000000000000000000000000000602082015250565b50565b7f5665746572616e2069732063757272656e746c79206f7574206f662073746f6360008201527f6b2e20436865636b206261636b20616761696e206c6174657221000000000000602082015250565b7f4552433732313a2063616c6c6572206973206e6f7420746f6b656e206f776e6560008201527f72206e6f7220617070726f766564000000000000000000000000000000000000602082015250565b7f546865206d696e742070726963652069733a2000000000000000000000000000600082015250565b7f546f6b656e20646f6573206e6f74206578697374210000000000000000000000600082015250565b7f7468652076616c75652073656e7420696e2069733a2000000000000000000000600082015250565b6148cc81613fd3565b81146148d757600080fd5b50565b6148e381613fe5565b81146148ee57600080fd5b50565b6148fa81613ff7565b811461490557600080fd5b50565b61491181614003565b811461491c57600080fd5b50565b61492881614059565b811461493357600080fd5b5056fea26469706673582212205877f076413d08c01a6518e1afe8f254e000b87f6d90fe3ec0fa4975d60f513264736f6c6343000804003368747470733a2f2f676174657761792e70696e6174612e636c6f75642f697066732f516d627472797779354d63724b7064564b3957416f6461324c6145326978544a4a726f6169324270395371753435",
  "linkReferences": {},
  "deployedLinkReferences": {}
}